S00E0000556E6F4A6F792E73726563B2
S11300000C94E4000C9401010C9401010C94010182
S11300100C9401010C9401010C9401010C94010154
S11300200C9401010C9401010C9401010C94CB0378
S11300300C94EC030C9401010C9401010C94010147
S11300400C9401010C9401010C9401010C94010124
S11300500C9401010C9401010C9401010C94010114
S11300600C9401010C9401010C9401010C94010104
S11300700C9401012126010700000000000100008A
S1130080AF0112000200001D0122002100002F0117
S113009009002200003F017000030000190104015F
S11300A0030904CF004802030904AD0020200355CE
S11300B0006E006F004A006F00790020004A006F54
S11300C000790073007400690063006B000000484D
S11300D0034F00700065006E00430068006F0072FB
S11300E000640020005800200052004D00490054D4
S11300F00020004500780065007200740069006FFC
S1130100006E002000470061006D00650073002050
S1130110004C00610062000000040309040902228B
S113012000010100803209040000010300000009FD
S113013021110100012270000705810340000A0516
S1130140010905A101150025013500450175019539
S11301500E05091901290E81029502810105012567
S113016007463B0175049501651409398142650010
S11301709501810126FF0046FF000930093109324B
S113018009357508950481020600FF092009210933
S113019022092309240925092609270928092909E7
S11301A02A092B950C81020A21269508B102C01256
S11301B001100100000040C410C2820001010200CD
S11301C00101C1320000000011241FBECFEFD2E0B4
S11301D0DEBFCDBF11E0A0E0B1E0EEE0FAE002C086
S11301E005900D92A230B107D9F721E0A2E0B1E069
S11301F001C01D92A731B207E1F70E946A010C9475
S113020005050C940000DF93CF93CDB7DEB7279795
S11302100FB6F894DEBF0FBECDBF4B8141704B8348
S113022081E08C838D838E838F8181608F8329818C
S11302303A8151E061E071E00E94C20227960FB654
S1130240F894DEBF0FBECDBFCF91DF910895909398
S1130250CD008093CC0088E18093C90086E0809330
S1130260CA00089508C0EFE9FFE03197F1F700C034
S11302700000019739F02091C80027FFF4CF809146
S1130280CE00089580E008959091C80095FFFCCFBA
S11302908093CE0008959AB121E030E002C0220F8D
S11302A0331F8A95E2F7922B9AB98BB120952823B4
S11302B02BB908959AB121E030E002C0220F331F18
S11302C08A95E2F7822F809589238AB98BB1822B94
S11302D08BB90895FF920F931F93DF93CF93CDB7FC
S11302E0DEB727970FB6F894DEBF0FBECDBFA89533
S11302F084B7877F84BF88E10FB6F8948093600049
S1130300109260000FBE89E190E00E94270180E80E
S113031080936100109261000E946B0218C085E016
S11303200E944B018FEF90E7A2E081509040A040E3
S1130330E1F700C0000085E00E945A018FEF90E7CA
S1130340A2E081509040A040E1F700C000000E946C
S11303508F02882321F3AFE3BCE91197F1F700C0C2
S1130360000085E00E944B0180E00E94440189E185
S113037090E00E943201082F81E00E94440189E14B
S113038090E00E943201182F82E00E94440189E12A
S113039090E00E943201F82E83E00E94440189E13A
S11303A090E00E943201282F220F9B819170922BA2
S11303B09B83881F8827881F9C819E7F982B9C8302
S11303C084E00E94440189E190E00E943201282FD8
S11303D0220F9C819170922B9C83881F8827881FF1
S11303E09D819E7F982B9D8385E00E94440189E135
S11303F090E00E943201282F220F9D819170922B50
S11304009D83881F8827881F9E819E7F982B9E83AB
S113041086E00E94440189E190E00E943201282F85
S1130420220F9E819170922B9E83881F8827881F9C
S11304309F819E7F982B9F8385E00E945A01902F75
S1130440917029812C7F802F8270292B282B902F4B
S11304509470237F802F8870292B282B902F9071E4
S11304602F7C802F8072292B282B802F80742F7350
S11304700078282B202B2983912F91703A813C7F7F
S1130480812F8270392B382B912F9470337F812FD9
S11304908870392B382B912F90713F7C812F80727B
S11304A0392B382B812F80743F731078382B312BE4
S11304B03A838F2D81704B814E7F482B4B835C8117
S11304C06D817E818F810E94C20245CF8091E800B8
S11304D080FFFCCF089580EA8093D80086E089BD30
S11304E080E090E009B400FC0DC0EFE9FFE0319733
S11304F0F1F700C000000196883EF3E09F0791F7F2
S113050081E0089580E88093D8001092E000109272
S113051003018CE08093E200789480E00895809158
S11305200301089580910301811102C08FEF0895A2
S11305308FB7F89491E09093E9009091E4009E5C69
S113054021E03091E80035FD0EC08FBF809103019A
S1130550882361F38091E400981741F38FB7F894EE
S11305602093E900EECFE4E0F1E091919093F10063
S113057091E0E731F907C9F79AE39093E8008FBF58
S113058080E00895CF93DF93CDB7DEB727970FB6FA
S1130590F894DEBF0FBECDBF4B835C836D837E8337
S11305A08F838091040120FB83F922FB992790F922
S11305B08E7F23FB442740F9892B40FB81F921FBE3
S11305C0992790F990FB82F924FB992790F990FBE5
S11305D084F927FB992790F990FB85F925FB992746
S11305E090F990FB86F930FB87F98093040183FF2F
S11305F004C09FEF90930F0102C010920F0180FF7F
S113060004C09FEF9093120102C01092120181FF67
S113061004C09FEF9093110102C01092110182FF58
S113062004C09FEF9093100102C01092100184FF48
S113063004C09FEF9093130102C01092130186FF30
S113064004C09FEF9093150102C01092150185FF1D
S113065004C09FEF9093140102C01092140187FF0D
S113066004C08FEF8093160102C01092160132FB72
S1130670992790F98091050190FB80F933FB992724
S113068090F990FB81F926FB222720F920FB82F9BF
S113069031FB992790F990FB83F934FB992790F962
S11306A090FB84F98093050188E080930601932FE1
S11306B090728B8136FF0DC0992311F027E003C09F
S11306C037FF04C021E02093060119C010920601EF
S11306D016C080FF0AC0992311F025E009C037FF36
S11306E002C023E005C024E003C0992321F026E0E2
S11306F0209306014DC037FF4BC022E0F9CF2FEF06
S113070020930D0137FF04C02FEF20930B0102C08B
S113071010920B0180FF04C02FEF20930E0102C042
S113072010920E01992321F09FEF90930C0102C0C7
S113073010920C0186959C81292F279522272795B5
S1130740822B8093070196958D81282F2795222748
S11307502795922B90930801982F96958E81282F98
S1130760279522272795922B9093090186959F819F
S1130770979599279795892B80930A0127960FB609
S1130780F894DEBF0FBECDBFDF91CF910C949202DF
S113079010920D01B7CF1F920F920FB60F92112432
S11307A08F938091E1001092E10083FF0FC01092BB
S11307B0E90081E08093EB001092EC0082E38093E7
S11307C0ED0088E08093F000109203018F910F9068
S11307D00FBE0F901F9018951F920F920FB60F9295
S11307E011242F933F934F935F936F937F938F9332
S11307F09F93AF93BF93CF93DF93EF93FF931092A5
S1130800E9008091E80083FFEAC09091F1008091B3
S1130810F100C091F1002091F100D0E0D22B2091A1
S1130820F1004091F10030E0342B4091F1005091FF
S1130830F10062EF6093E800863009F049C08CE76C
S113084090E0FC0165917491C617D707E1F4FC01AF
S113085032966591749126173707A9F4FC013496F2
S113086065917491FC0136968491242F30E0352BE8
S11308702F3F310519F010F02FEF30E0281708F45E
S1130880822F3EEF0DC0079660E08D3A9607C9F6B9
S1130890A6C0690F711D891B3093E8008823A9F055
S11308A09091E800292F2570D9F392FD9BC0982FD1
S11308B0813408F090E4FB01292F222351F3449161
S11308C04093F10021503196F8CF903449F38AC017
S11308D0853049F48EEF8093E8000E946602C06878
S11308E0C093E3007FC0893059F591113BC0C09398
S11308F003018EEF8093E80041E081EC91E04093A6
S1130900E9009C012F5F3F4FFC0154915093EB0091
S1130910552359F0F90124912093EC009C012D5F9B
S11309203F4F3196E491E093ED004F5F453011F075
S1130930C901E5CF8EE18093EA001092EA0052C02B
S1130940883039F4903871F40E9466028091030172
S11309502AC0811107C00E9466021092F100109211
S1130960F10039C0232BD9F5913A01F5813071F4A6
S11309700E946602E4E7F0E08CE790E02491209383
S1130980F10031968E179F07C9F725C0823029F4EC
S11309900E9466028091020106C0833001F50E9424
S11309A06602809100018093F10015C09132B9F480
S11309B0893041F48091E80082FFFCCF8BEF809373
S11309C0E80009C08A3019F4D093020104C08B30C6
S11309D031F4C09300018EEF8093E80003C081E2FC
S11309E08093EB00FF91EF91DF91CF91BF91AF9195
S11309F09F918F917F916F915F914F913F912F9133
S1110A000F900FBE0F901F901895F894FFCF23
S1050A0E0100E1
S9030000FC
